:1010000000000420F9120000211300002313000047
:101010002513000027130000291300000000000022
:101020000000000000000000000000002B13000082
:101030002D130000000000002F13000031130000EA
:101040004D2A0000892F00003313000033130000E5
:101050003313000033130000331300003313000078
:10106000C1390000331300003313000033130000B4
:101070003313000033130000331300003313000058
:101080003313000033130000331300003313000048
:101090003313000033130000331300003313000038
:1010A0003313000033130000331300003313000028
:1010B00033130000331300000000000000000000A4
:1010C0003313000033130000331300003313000008
:1010D000331300003313000033130000ED2300002E
:1010E000331300003313000033130000000000002E
:1010F0000000000033130000000000003313000064
:1011000000000000000000000000000000000000DF
:1011100000000000000000000000000000000000CF
:1011200000000000000000000000000000000000BF
:1011300000000000000000000000000000000000AF
:10114000000000000000000000000000000000009F
:10115000000000000000000000000000000000008F
:10116000000000000000000000000000000000007F
:10117000000000000000000000000000000000006F
:10118000000000000000000000000000000000005F
:10119000000000000000000000000000000000004F
:1011A000000000000000000000000000000000003F
:1011B000000000000000000000000000000000002F
:1011C000000000000000000000000000000000001F
:1011D000000000000000000000000000000000000F
:1011E00000000000000000000000000000000000FF
:1011F00000000000000000000000000000000000EF
:101200000348044B834202D0034B03B11847704795
:101210009C4B00209C4B0020000000000548064B22
:101220001B1AD90F01EBA301491002D0034B03B1E4
:10123000184770479C4B00209C4B0020000000008A
:1012400010B5064C237843B9FFF7DAFF044B13B10E
:101250000448AFF300800123237010BD9C4B002095
:1012600000000000AC84000008B5044B1BB1044929
:101270000448AFF30080BDE80840CFE7000000005D
:10128000A04B0020AC840000A3F5803A704700BF5B
:10129000154B002B08BF114B9D46FFF7F5FF0021B2
:1012A0008B460F461148124A121A04F095FD0C4B5A
:1012B000002B00D098470B4B002B00D09847002004
:1012C000002104000D000B4804F0A6FE04F0DEFC33
:1012D0002000290002F052F804F08CFE0000080003
:1012E0000000000000000000000004209C4B0020D3
:1012F00088540020A96400000649074A074B9B1A3E
:1013000003DD043BC858D050FBDC00F021F8FFF7A8
:10131000BFFF00007C850000080000209C4B0020DF
:10132000FEE7FEE7FEE7FEE7FEE7FEE7FEE7FEE795
:10133000FEE7FEE74FF08053D3F83021082A03BFC1
:10134000D3F83401B0FA80F0400900207047000063
:1013500008B54FF080430022C3F80C21C3F81021D8
:10136000C3F838254FF0805203F54043D2F80414F7
:10137000C3F82015D2F80814C3F82415D2F80C14B9
:10138000C3F82815D2F81014C3F82C15D2F8141489
:10139000C3F83015D2F81814C3F83415D2F81C1459
:1013A000C3F84015D2F82014C3F84415D2F8241419
:1013B000C3F84815D2F82814C3F84C15D2F82C14E9
:1013C000C3F85015D2F83014C3F85415D2F83414B9
:1013D000C3F86015D2F83814C3F86415D2F83C1479
:1013E000C3F86815D2F84014C3F86C15D2F8442439
:1013F000C3F87025FFF79EFF18B13A4B3A4AC3F87D
:101400008C26FFF797FF18B1384BFB22C3F818253D
:10141000FFF790FF58B14FF080424FF08051D2F863
:10142000E43ED1F8581261F30303C2F8E43EFFF73B
:1014300081FF20B12E4B4FF40072C3F840264FF0CD
:101440008043D3F80024D20744BF6FF00102C3F8F1
:101450000024284AD2F8883043F47003C2F8883058
:10146000BFF34F8FBFF36F8F4FF01023D3F80022DD
:10147000002A03DBD3F80432002B2EDA1E4B0122A4
:10148000C3F80425D3F80024002AFBD04FF0102223
:101490001221C2F80012D3F80024002AFBD04FF02A
:1014A00010231222C3F80422134BD3F80024002A7D
:1014B000FBD00022C3F80425D3F80024002AFBD077
:1014C000BFF34F8F0B490D4BCA6802F4E062134320
:1014D000CB60BFF34F8F00BFFDE7094B094A1A608D
:1014E00008BD00BF005000404881030000F00040EC
:1014F0000090024000ED00E000E001400400FA0529
:10150000080000200090D00300F1804000F51C305E
:1015100001230360BFF36F8FBFF34F8F704700004D
:10152000020713D400F00F0310F0800F084A0BBF1E
:1015300003F5887303F5847302EB830252F82300EA
:1015400008BF5068431E58425841704700207047FA
:101550000070024010F0080F074B06D0D3F8C0040B
:1015600010F4803F18BF0020704700F00F0000F516
:10157000947053F820007047007002404FF0805381
:10158000D3F83021082A05D1D3F83401003818BF28
:10159000012070470020704730B54C689C4209D24A
:1015A000002545600968016093420CD1201E18BFD8
:1015B000012030BD43600D6805600868E41A1844D6
:1015C0004C600860F0E70020F3E74B689A4228BFC0
:1015D0001A460B68C0E9003248680B68801A4860F8
:1015E000134400380B6018BF012070474B689A42C3
:1015F00028BF1A4662B10B68C0E900324B689B1ADB
:101600004B600B68101E13440B6018BF012070471D
:101610001346F1E7054B10F0800F03F1900218BF5D
:10162000134600F00F0003EB00107047D04C002071
:10163000C343C3F3C01300F00F0000EB0310704767
:10164000034A0023C2F81C3C024A1370704700BFD3
:1016500000700240F44D002007B5074A00231370C4
:10166000064A137001230193054B01A81B68984794
:1016700003B05DF804FB00BF014E0020004E0020C7
:10168000044E00207047000013B5124C012223685D
:1016900002FA01F10B4323600F4B1B68194003064C
:1016A0000DD551B906238DF804308DF806008DF85C
:1016B00007100A4B01A81B68984702B010BD00290B
:1016C000FBD106238DF804308DF806008DF8072035
:1016D000EFE700BFFC4D0020F84D0020044E002035
:1016E00008B5054B1A781046FFF7A2FFBDE8084081
:1016F00001461046FFF7C8BF004E002013B51C4B33
:10170000D3F80044C3F80044BFF36F8FBFF34F8F8B
:10171000BFF36F8FBFF34F8FE10508D5154B012243
:101720001A7002230193144B01A81B689847A20565
:1017300008D5104B00221A70032301930E4B01A809
:101740001B689847630511D50A4B1A7872B10022BD
:101750001A70074B0122C3F808255820FFF7D4FE62
:1017600004230193044B01A81B68984702B010BDE5
:1017700000700240014E0020044E0020F8B54B6876
:101780000B4F9A4228BF1A460C4615460646096872
:10179000384604F073FBC6E9007560682368401B97
:1017A0002B4460602360003818BF0120F8BD00BFE3
:1017B000B84B002070B54B689A4228BF1A460646BF
:1017C0000D46144682B10968084804F057FB074BE0
:1017D000C6E900346B681B1B6B602B682344201E1A
:1017E0002B6018BF012070BD1346F1E7B84B0020F5
:1017F00008B5FFF725FF084B93F89E20032A06D172
:10180000BDE8084005486FF0010100F0D9BFD3F8EA
:101810009030002BF4D008BDD04C0020F84D0020B3
:1018200008B5FFF70DFF0146FFF7F4FE837B032B9E
:101830000AD10846FFF7FCFE01218140BDE80840BF
:101840000348C94300F0BCBF0368002BF1D008BDBA
:10185000F84D00208720FFF7E3BF8620FFF7E0BFA9
:101860008520FFF7DDBF8420FFF7DABF8320FFF775
:10187000D7BF8220FFF7D4BF8120FFF7D1BF000080
:1018800007B500238DF804300B4BD3F82025ADF8B5
:101890000620D3F8C034094A002B136814BF4FF058
:1018A00001214FF480710B431360054B01A81B68A5
:1018B000984703B05DF804FB00700240FC4D002027
:1018C000044E002007B5FFF7BBFE0D4B93F88E20AA
:1018D000032A11D0D3F8803073B90A486FF08071B1
:1018E00000F06EFF06238DF804300823ADF80630B3
:1018F000054B01A81B68984703B05DF804FB00BFC7
:10190000D04C0020F84D0020044E002007B5FFF712
:1019100097FE114B93F81E21032A07D10F486FF44D
:10192000807103B05DF804EB00F04ABFD3F81031CA
:1019300073B90A486FF4807100F042FF06238DF8F6
:1019400004308823ADF80630054B01A81B68984782
:1019500003B05DF804FB00BFD04C0020F84D002020
:10196000044E00202DE9F04F714B1B7885B0002B01
:1019700040F08280DFF8CC816E4DD8F800102B68E3
:10198000194079D011F0012379D093FAA3F3B3FA77
:1019900083F10F2986BFA1F11004E4B241F0800465
:1019A0002046FFF737FE4FFA84FA4FF0010B0BFA8F
:1019B00001FBBAF1000F81466FEA0B0B64DA036892
:1019C0008289416802A8984708B9C9F800005A4BB3
:1019D00057498222C3F81C2C01220A702A68D9F8C0
:1019E000081002EA0B022A60039ABAF1000F1144B0
:1019F000C9F8081004F00800029904F00F0471DA25
:101A0000002867D0C3F8A016C3F8A426FFF7B6FDD8
:101A100027B2A300494A4A494FEADA7664000546EC
:101A200000286FD1002E12BF042028200A46424F02
:101A30001E181444C7F80451BFF36F8FBFF34F8FC4
:101A40003046FFF761FD022000F0D0FED7F80431E8
:101A5000002BEFD01E2000F0C9FED7F874349B068F
:101A60004ED5012000F0C2FE238803F1804303F528
:101A70001C331B68002BDDD005B0BDE8F08F91FA58
:101A8000A1F1B1FA81F184E72046FFF763FDB9F8CF
:101A90000C20D9F80410D9F800600346074602A8C4
:101AA000B047029A002A8FD0039A97428CD9022716
:101AB00089F80E705946234800F082FE06238DF8FF
:101AC0000430214B8DF806401B688DF8077001A883
:101AD000984752E7142000FB0433C3F80016C3F8FC
:101AE000042693E720B1C3F8A017C3F8A4278DE715
:101AF000142000FB0433C3F80017C3F8042785E75C
:101B00000220A8E7BAF1000FACBF28200420002E65
:101B100008BF0A461844FFF7F7FC32F8173003F104
:101B2000804303F51C331A68002AFCD0A4E700BFE9
:101B3000F44D0020FC4D002000700240B8800000F1
:101B4000A6800000F84D0020044E002038B5174B49
:101B5000D3F86C44C3F86C44BFF36F8FBFF34F8F5F
:101B6000FFF70CFD38B9124A136823F0011103F096
:101B700001130C43136001251CB9BDE83840FFF781
:101B8000F1BE94FAA4F1B1FA81F30F2BC8BFA3F10F
:101B900010001946D4BF43F08000C0B205FA03F329
:101BA00024EA0304FFF770FDE6E700BF007002407F
:101BB000F04D002037B5FFF743FD0446FFF72AFD3F
:101BC000837B032B0DD12046FFF732FD012181409D
:101BD000C943104800F0F4FD03B0BDE83040FFF702
:101BE000C1BE0568002DF7D12046FFF721FD012178
:101BF0008140C943074800F0E3FD06238DF8043017
:101C0000054B8DF806401B688DF8075001A89847D2
:101C1000E2E700BFF84D0020044E00200720FFF748
:101C2000C9BF0620FFF7C6BF0520FFF7C3BF0420CA
:101C3000FFF7C0BF0320FFF7BDBF0220FFF7BABF09
:101C40000120FFF7B7BF0000024A00231360024AD9
:101C500013707047044E0020084E00204F4B4FF485
:101C6000006210B5C3F80024BFF36F8FBFF34F8F2E
:101C7000FFF784FC98B1002003F0E8FD484BD3F84F
:101C8000001C032200297BD149F27531C3F8001CE6
:101C9000C3F8142DC3F8001C002003F0D9FD002068
:101CA00003F0D4FD3E4BD3F8001CC02200296AD1BA
:101CB00049F27531C3F8001CC3F8142CC3F8001C9A
:101CC000002003F0C5FD354B0122C3F80025BFF30A
:101CD0006F8FBFF34F8FD3F800241205FBD54FF45D
:101CE0000062C3F80024BFF36F8FBFF34F8F002053
:101CF00003F0ACFD2A4BD3F8001C002946D149F271
:101D00007532C3F8002CC3F8141CC3F8002C002053
:101D100003F09EFD214B40F2E372C3F800284022FD
:101D2000C3F80428BFF36F8FBFF34F8F00248022C6
:101D3000C3F81C25C3F830451A4B40F2FF121A6055
:101D4000194B1C60FFF77CFC184B1C70184B0222CF
:101D50001A70FFF713FC00B3204603F077FD104B19
:101D6000D3F8001CB1B949F27532C3F8002CC3F89E
:101D7000141DC3F8002CBDE81040002003F068BD1E
:101D8000C3F8142D88E7C3F8142C99E70022C3F890
:101D9000142CBCE7C3F8144DEDE710BD00700240F1
:101DA00000E00640FC4D0020F84D0020004E0020D1
:101DB000084E002008B50F4B00221A70B8B9FFF783
:101DC000DDFB0D4B0D4A002818BF13460C4AC2F824
:101DD00004330C4BE02183F8271380215960012341
:101DE000C2F80435BFF36F8FBFF34F8F08BD024BAE
:101DF000ECE700BF014E00200714E0010714C0010A
:101E00000070024000E100E0024B1878003818BF73
:101E100001207047084E0020034B1878012894BF1A
:101E200000200120704700BF084E002010B50020A0
:101E300003F00CFD114B1B7803F0FF049BB1104A1B
:101E4000D2F82C35BBB10023C2F82C350D4BD3F89A
:101E5000001CC02261B949F27531C3F8001CC3F8F7
:101E6000142CC3F8001C002003F0F2FC204610BD27
:101E7000C3F8142CF7E71C46F5E700BF014E00201D
:101E80000070024000E00640024B034AC3F80823FA
:101E9000704700BF0070024004148001024B034AE7
:101EA000C3F80423704700BF00700240041480018F
:101EB000014B00221A707047014E002008B5FFF751
:101EC000A9FB818108BD000070B51B4B1C7884BB49
:101ED0001A4A106001221A70264664F07F0514F039
:101EE000080FEDB20CBF40214FF400712846FFF7F8
:101EF000E5FF2846FFF78EFB0134092C8673066048
:101F00008660EAD10024254614F0080FE6B20CBF23
:101F100040214FF400713046FFF7D0FF3046FFF705
:101F200079FB0134092C857305608560ECD10020B4
:101F300070BD0820FCE700BF084E0020044E0020C2
:101F400008B5FFF767FB808908BD0000064A10F05E
:101F5000800F00F00F0314BFD2F81005D2F814055B
:101F6000D84000F001007047007002402DE9F843AE
:101F7000064600200F4603F069FC16F00F0503D15A
:101F8000294B1B78B3424BD1284BDFF8C4801C6827
:101F9000D8F80030E443A4B230461C43FFF748FBB6
:101FA0004FF0010909FA00F914EA09043AD1304660
:101FB000FFF730FB0C225543320603462CD51C4A52
:101FC0003968154401F06041BA68B1F1005F02F070
:101FD00001021CD1CAB9174A1A6097E8070085E8C0
:101FE000070000229A609A735D60D8F8003043EAD7
:101FF0000903C8F80030104B8022C3F804210020E8
:1020000003F026FC2046BDE8F8830C4AE4E70AB951
:102010000B4AE1E70B4ADFE70B4A15440B4ADBE7C3
:102020001024ECE71124EAE7004E0020FC4D0020CC
:10203000644C0020CB15000000E100E0ED1500002D
:102040007D170000B5170000F84B0020991500001F
:10205000F84D0020F8B5064600200D4603F0F6FBCB
:10206000330703D1154B1B78B34222D1144B154FC4
:102070001C683B68E443A4B230461C43FFF7D8FA1F
:10208000012181400C4016D13046FFF7C3FA84602D
:102090002B6803606B6843603B6884730B433B6051
:1020A000094B8022C3F80421002003F0D1FB204615
:1020B000F8BD1024F8E71124F6E700BF004E002019
:1020C000FC4D0020F84D002000E100E00048704782
:1020D000B84B0020044B40F48070C3F81805BFF3E0
:1020E0006F8FBFF34F8F704700700240FFF718BA31
:1020F000064BC3F80C05BFF34F8F40F48070C3F854
:102100000C05BFF36F8FBFF34F8F70470070024015
:1021100010B508220021044603F05EFE0E4BD3F8F2
:1021200080242270D3F884246270D3F88824D3F8F2
:102130008C1442EA01226280D3F89024D3F89414DC
:1021400042EA0122A280D3F89824D3F89C3442EAD0
:102150000323E38010BD00BF0070024008B5FFF705
:102160000DFA58B9EFF3108272B64C20FFF7CCF994
:102170004C20FFF7C9F982F3108808BDBDE808407C
:102180004C20FFF7C1B9000013B5FFF759FA114B06
:102190009A7B032A07D110486FF4803102B0BDE862
:1021A000104000F00DBB1C687CB96FF480310A4808
:1021B00000F006FB06238DF80430084BADF806400E
:1021C0001B6801A8984702B010BD02B0BDE81040DE
:1021D000FFF7C4BFD04C0020F84D0020044E002073
:1021E0005020FFF791B95420FFF78EB9014B1878B2
:1021F000704700BF004E002070B50446FFF7BEF9DF
:102200001D4E0546E0B903F021FB2046FFF710FA0A
:10221000012303FA00F0336804F00F0423EA0003FB
:1022200033606400154B04F2C574C3F80048C3F86A
:102230000458D3F80438BDE87040002003F008BB10
:10224000002003F003FB2046FFF7F2F9012303FA15
:1022500000F0336814F0080223EA00033360EAD187
:1022600004F00F04054B04F5947443F82420BFF3E5
:102270006F8FBFF34F8FDEE7FC4D002000700240F0
:102280002DE9F3410446002003F0E0FA2046FFF771
:10229000C1F914F0800F354905461FD12046FFF7DC
:1022A000C7F9012303FA00F00B6830EA03030AD0F0
:1022B0002046FFF7A1FF0323AB73002002B0BDE867
:1022C000F04103F0C5BA2B600B68294A23EA0003EA
:1022D0000B60136823EA00031360ECE7230715D4AF
:1022E000802C244B35D004F00F0202F2DA32520077
:1022F000C3F80028D3F80428D3F80408D2B242F077
:1023000002020243C3F80428D3F80438184F0E68B9
:102310003A682046FFF78CF9012366EA020803FABF
:1023200000F018EA000FC8D026EA000600230E606D
:102330002B6003230243AB738DF807300E4B3A60DA
:1023400006221B688DF804208DF8064001A89847E6
:10235000B3E740F2B472C3F80028D3F80428D3F8E6
:102360000408D2B242F00402CBE700BFF84D0020CF
:10237000FC4D002000700240044E0020FFF780BF9B
:1023800073B5154B154CD3F880542368144EDA43BB
:10239000144B31781B6892B208461A43FFF748F98C
:1023A00001238340134202D00846FFF769FF6FF014
:1023B000011125F07F050B48357000F001FA236804
:1023C00043F00103236005230193074B01A81B6819
:1023D000984702B070BD00BF00700240FC4D002065
:1023E000004E0020F84D0020044E00202DE9F04161
:1023F0005F4BD3F80443002122460E460125002AF4
:1024000040F09280FFF7BAF800287ED1594B1B7834
:10241000002B7AD1880278D5554B554F40F2A972DE
:10242000C3F80028D3F8040810F0FF001CBFD3F84D
:102430000428104040F2AA72C3F80028D3F80428F8
:1024400012F0FF021CBFD3F804381A4040F2AB73FD
:10245000C7F80038D7F8043813F0FF031CBFD7F8CB
:1024600004582B4040F2AC75C7F80058D7F8045810
:102470002840414D0AD02E6806432E6040F2A976CE
:10248000C7F80068C7F80408D7F80408384840F2CD
:10249000AD76C0F80068D0F8046832400BD02E68E2
:1024A00046EA02462E6040F2AA76C0F80068C0F8FC
:1024B0000428D0F804282E4A40F2AE70C2F8000872
:1024C000D2F80428134011D043F3000202F40002B2
:1024D0001143DA06264A40F2AB70C2F80008C2F88F
:1024E0000438D2F8043848BF41F001012B6833F0BA
:1024F00001121CBF04F08070014313F0011F04D0CF
:10250000630544BF2A6041F480611C4F01F400065A
:1025100021F400044FF00108E4B9FFF723FA2EB3C9
:10252000BDE8F041FFF72CBF92FAA2F31448B3FACA
:1025300083F39F00384407683FB10660BFF36F8F95
:10254000BFF34F8F05FA03F0014305FA03F322EAC4
:10255000030254E794FAA4F5B5FA85F557F8253047
:1025600008FA05F5984724EA0504D5E7BDE8F081A7
:1025700000700240F44D0020F04D0020CC8000009F
:1025800000710240F8B5114E114B34681B686FF3AF
:102590000F041C4301271CB940F2FF133360F8BD40
:1025A00094FAA4F0B0FA80F50F2D2846C6BFA5F125
:1025B0001000C0B240F08000030701D4FFF760FEB6
:1025C00007FA05F524EA0504E5E700BFFC4D002005
:1025D000F84D002038B50C4C8025C4F88451636850
:1025E0001B060FD5FFF7CEFF084B0022C3F80425CA
:1025F000BFF36F8FBFF34F8F4FF0FF32C4F884509B
:10260000C3F8082338BD00BF00E100E000700240BD
:1026100008B5FFF7DFFF094BD3F80423C3F80823FD
:102620000022C3F80025BFF36F8FBFF34F8FFFF772
:1026300007F8034B01221A7008BD00BF007002406A
:10264000084E002010B5002003F000F90D4B1B7858
:1026500003F0FF0483B1FFF795FF0B4BD3F8002481
:1026600012F4007208D10121C3F82C15D3F800141C
:10267000890502D5C3F82C250024002003F0E8F8D2
:10268000204610BD014E00200070024010B50446E7
:10269000FFF7F6FD134A04F00F0064B2002C4FF070
:1026A0000103B4BFD2F81015D2F8141503FA00F3E1
:1026B0006FEA0303B5BF0B400B40C2F81035C2F8F8
:1026C0001435BFF36F8FBFF34F8F074A074B33EAC1
:1026D000240328BF13461A5C01239340014AC2F821
:1026E000083310BD007002409D80000094800000FF
:1026F00038B5254A254B45B2002DB8BF134600F02A
:102700000F010446585C224A4FF0010303FA00F01F
:10271000C2F804032ADAD2F81005C840C00731D441
:10272000D2F810058B400343C2F81035BFF36F8F0A
:10273000BFF34F8F31B3002D24DB14F0080521D1F6
:10274000284603F083F82046FFF756FD2046FEF7A3
:102750006FFF104A012303FA00F0136823EA000315
:1027600013602846BDE8384003F072B8D2F814056B
:10277000C840C00706D4D2F814058B400343C2F802
:102780001435D3E738BD00BF9D8000009480000061
:1027900000700240F84D0020030610B5044605D431
:1027A000FEF7BEFE10B12046FFF726FD034BC3F82F
:1027B0001845BFF36F8FBFF34F8F10BD00700240FD
:1027C00010B5034653E8000F00EA010243E8002475
:1027D00094F0000FF6D110BD4FF0E022916993699B
:1027E000CB1A23F07F438342F9D37047034B044A4B
:1027F0001B68B3FBF2F35843FFF7EEBF080000205D
:1028000040420F00044B0246187918B91A600122A1
:102810009A807047852070470C4E0020084B1A683C
:10282000D2075FBFE02283F8002301221A604FF035
:1028300080420123C2F81835024A1370704700BF66
:1028400000E100E0094E00204FF080430022C3F871
:10285000042182B0D3F804210192019A0222C3F824
:10286000042301229A6002B070474FF08043002297
:10287000C3F8002182B0D3F800210192019A01220D
:10288000C3F804231A6002B0704700004FF0804282
:1028900001235360D2F80C3403F00113B3F1011F8C
:1028A000F8D0024B00225A71704700BF0C4E002036
:1028B00007B54FF08043D3F800217AB10022C3F866
:1028C0000021D3F800210092009A0122C3F80823C6
:1028D0000F4B587910B95A711B6898474FF08043D5
:1028E000D3F8042182B10022C3F80421D3F80421D3
:1028F0000192019A0222C3F80823054B1B680120AC
:1029000003B05DF804EB184703B05DF804FB00BFAB
:102910000C4E002000F1804382B01A68002A14BFD8
:102920000120002004D000221A601B680193019B43
:1029300002B070470E4A1378C3B903784FF0804154
:10294000C3F34003C1F88035037803F00103C1F8F5
:102950007835084B1968C9075FBFE02183F8001379
:1029600001211960012313700020704785207047F2
:10297000204E002000E100E0014B02681A60704721
:10298000144E00204FF080434FF46072C3F80423CC
:1029900070474FF080434FF46072C3F808237047CC
:1029A000014B00221A607047144E002010B54FF002
:1029B0008043D3F80443620707D54FF48470FFF7D0
:1029C000A9FF10B11E4B1B689847A30608D54FF40A
:1029D0008A70FFF79FFF18B11A4B00201B689847B9
:1029E000600608D54FF48C70FFF794FF18B1154BB3
:1029F00001201B689847210608D54FF48E70FFF719
:102A000089FF18B1104B00201B689847E20508D5D4
:102A10004FF49070FFF77EFF18B10B4B01201B683D
:102A20009847A3050AD54FF49270FFF773FF28B1BA
:102A3000054BBDE810401B680220184710BD00BFC1
:102A40001C4E0020184E0020144E002008B5FFF741
:102A5000ADFFBDE80840FFF72BBF00000E4A45F26E
:102A6000555303EA500302EA400243EA02000B4ACC
:102A700001B243F2333302EA810203EA90031343C3
:102A800040F60F701AB200EA1310054B03EA021366
:102A9000184380B2704700BFAAAAFFFFCCCCFFFF4B
:102AA000F0F0FFFF08B528B9054B064A06482C216F
:102AB00003F068F8BDE808403022002103F08CB92B
:102AC00030810000A28200003A81000010B5044667
:102AD00028B9114B114A3221114803F053F819B9A2
:102AE000104B0E4A3321F7E7052203F0C7F9002304
:102AF00084F82B30DA0803F00701A25C0A41D20700
:102B000006D594F82B20511C224484F82B10937185
:102B10000133252BEED110BD308100008A820000E8
:102B20003A8100004D81000008B528B9034B044AE2
:102B30000448472103F026F8417108BD30810000A8
:102B40006B8200003A81000008B5034628B9114B9A
:102B5000114A12484D2103F015F8417990F82C20C4
:102B60000A442521B2FBF1F001FB1022D0B2D208B9
:102B700083F82C009A5C00F007010A41D20708D4C0
:102B800093F82B20B0FBF2F102FB110053FA80F016
:102B9000807908BD308100004D8200003A8100003C
:102BA00008B528B9044B054A0548592102F0EAFF47
:102BB00081EA1141C18508BD308100002D820000ED
:102BC0003A81000038B5044628B91A4B1A4A1B4806
:102BD0007A2102F0D7FFC58D81EA0500FFF73EFF9D
:102BE00000EB0010284480B2FFF738FF00EB001024
:102BF000284480B2FFF732FF00EB0010284480B277
:102C000045402522B5FBF2F302FB1353C3F3CC027C
:102C100098B2A25C03F0070342FA03F3DB075DBF3F
:102C200094F82B306B4304EB1344C0B258BFA07927
:102C300038BD00BF30810000088200003A810000EA
:102C40000023C3608360704708B58268C3689A42F6
:102C500005D1084B084A09482C2102F093FF02468F
:102C6000C16852F8103B4068013B0B4000FB032059
:102C700008BD00BF59810000CF82000070810000B4
:102C800008B58268C3689A4205D1094B094A0A48C7
:102C9000322102F077FFC16802464B1CC36052F834
:102CA000103B4068013B0B4000FB032008BD00BF08
:102CB00059810000C58200007081000008B582685B
:102CC000C1680368521A934205D2074B074A084865
:102CD000382102F057FF816800F11002013B406883
:102CE0000B4000FB032008BD81810000B982000079
:102CF0007081000008B58268C1680368521A934267
:102D000005D2084B084A09483E2102F03BFF826881
:102D1000511C8160013B00F110014068134000FB31
:102D2000031008BD81810000AF82000070810000A7
:102D30008268C068101A70478368C26800689B1A6E
:102D400098428CBF002001207047000008B5064B58
:102D5000188800F017FF054B00221A711A60BDE8B1
:102D6000084000F083BD00BF224E0020544E0020DA
:102D7000F8B50E4B1E6807463046FFF7DDFF0546E7
:102D800090B93046FFF79AFF45230370044600F0E0
:102D90000BFE0523C4F80300E7716370A57030468D
:102DA000BDE8F840FFF7A6BFF8BD00BFF082000005
:102DB000104B70B51E6805463046FFF7BDFFC0B921
:102DC0003046FFF77BFF50230370044600F0ECFD14
:102DD000C4F80300284602F093FF0430A4F8010071
:102DE0002946E01D02F0F4FE3046BDE87040FFF7D2
:102DF00081BF70BDF08200002DE9F8435D4C23686F
:102E0000002B00F0B580638E01339BB26386A2680D
:102E1000A36B1344A363A268E3691344E361002333
:102E2000E380A26BE3689A4206D90120FFF7A0FF76
:102E3000BDE8F843FFF78ABF4F4A94F83E30156863
:102E400043B3B4F84020638E92B29BB29A4221D130
:102E50002846FFF771FF0746A8B92846FFF72EFF5F
:102E600044230370064600F09FFD0522C6F80300C8
:102E700004F14201F01D03F001F809237370B770EB
:102E80002846FFF737FF3D493D48FFF71FFE002367
:102E900084F83E3094F84730002B35D0B4F8482001
:102EA000638E92B29BB29A422ED12846D4F85090AB
:102EB000D4F85880B4F85430FFF73EFF074698B96D
:102EC0002846FFF7FBFE43230370064600F06CFD27
:102ED0000E23C6F80300C6F80790C6F80B8073707F
:102EE000B7702846FFF706FF236DA360A36DE3606C
:102EF000B4F854309BB22361224B0026188884F822
:102F0000476000F03FFE26712846B4F83280FFF794
:102F100013FF1FFA88F8074688B92846FFF7CEFE48
:102F200042230370064600F03FFD0623C6F8030067
:102F3000A6F807807370B7702846FFF7DBFE94F899
:102F4000303003F0FF023BB1012A0BD094F820008F
:102F5000BDE8F84300F002BD0948FFF7F5FD84F82D
:102F60002000F3E7618E064889B2FFF72BFEF6E7F3
:102F7000BDE8F883544E0020F0820000964E0020F9
:102F8000244E0020224E00202DE9F74FB14BB249CC
:102F9000B24C0022C3F80C21D3F80455D3F80074C6
:102FA000D1F84C65D3F848355FFA83FA2368012BD2
:102FB00007F00107A6F1280814D194F82110514513
:102FC00010D284F83D309146A24A0121916000223E
:102FD000A26322688A4256D0022A00F0058103B01B
:102FE000BDE8F08F9E4BD3F800B05846FFF7A4FE23
:102FF0008146002844D10123584684F83D30FFF72C
:1030000079FE5846FFF75AFE924B0F30C3F804057D
:1030100005F80F9C94F8202005F8082C45F80C8C36
:1030200005F806AC626A45F8042C6A7805F8079C36
:1030300002F1110125F80E1CD3F80C3493FAA3F316
:10304000911C2A442944180A90701A0C1B0E4A70CD
:103050008B702FB115F8073C43F0040305F8073CCB
:1030600094F83D3043B1002384F83D3015F8073C17
:1030700043F0080305F8073C00234FF00109A3E7DC
:1030800000239946A0E7002FA9D0002BA7D12F46F7
:1030900017F8023B03F00F03052B40F09B80237DC4
:1030A00005F10808002B6ED12B8B6E4840F2E242EE
:1030B0005343A360AB8B42F210725343E3606B8BBC
:1030C0002361002363862E7DEB7C360446EA0326CB
:1030D000AB7C1E43D5F80E306362FFF7E3FC61481A
:1030E00005F11E01FFF7F2FC2A78E38D03EA521383
:1030F00003F0010384F8303094F8303003F0FF021D
:10310000002B50D0012A5BD0606A94F82010324620
:1031100000F0F8FB02232360534BD4F824A01B6873
:10312000D4F8089001931846E668D4F810B0FFF779
:1031300003FE054600287FF452AF0198FFF7BEFD5D
:1031400041220270044600F02FFC3946C4F8030007
:103150000622E01D02F092FE0622414604F10D0017
:1031600002F08CFE0198C4F813A01E22C4F8179038
:10317000C4F81B60A4F81FB06270A57003B0BDE86E
:10318000F04FFFF7B7BD39490622384602F0D4FFA9
:10319000002889D035490622404602F0CDFF00289C
:1031A0007FF41DAF80E795F823102E4801F01F0132
:1031B000FFF7BAFC2B48FFF7C7FC84F82000A3E711
:1031C000616A2848FFF7ECFC618E264889B2FFF758
:1031D000F9FCF2E726480622394602F04FFE2B782A
:1031E000C3F34013E385FAE6B4F806A01FFA8AFA9F
:1031F000BAF1000F10D1237903F0FF0263B1E36944
:10320000A3EB0803002BB8BF5B42632B05DD194815
:10321000FFF7CEFD84F83CA0002223790BB1002AF1
:1032200038D0DFF864A0C4F81C80BAF8000000F0C1
:10323000A9FCE169104BA268BAF80000A1F2E241D2
:1032400000F06CFC10B30D4B0D4A0E484FF4F971B1
:1032500002F098FC0010004000800040544E002016
:10326000F4820000244E0020F0820000694E00200D
:103270007C4E0020A0810000F92D0000B3810000E9
:10328000DF820000BC810000224E00200123237158
:1032900084F83C30E3889BB27BB123796BB1636BDC
:1032A000A3EB0803002BB8BF5B42642B05DD31485C
:1032B000FFF77EFD002384F83C30E38801339BB2A6
:1032C000E380B9F1000F06D094F83C3015F8072CD4
:1032D000134305F8073C94F83C303BB194F83C307C
:1032E000012B0CBF0223012384F83C306B7806EBE2
:1032F000C306BE366663002F3FF471AE2B7803F031
:103300000303032B7FF46BAEAE78012E1ED0022E8A
:1033100027D0002E7FF463AEEB7884F84A30AB8878
:10332000A4F84C30EB8840F2E242534323652B89EA
:10333000A4F854306B8942F210725343A365AB89F1
:10334000A4F84830012384F8473048E60A480522AB
:10335000E91C02F093FD2B89A4F8403084F83E600C
:103360003DE6FFF7F3FC002003B0BDE8F04FFFF7A8
:10337000FFBC00BFD0810000964E00202DE9F04F29
:10338000002397B001224FF0A041032002FA03F47A
:1033900014F0E07F18BF03F5E07403F1010318BFD8
:1033A00041F82400202BF1D14FF0A0434FF0E07101
:1033B0000022C3F80815C3F80C25C3F80C15C3F890
:1033C000082500F051FB012000F07EFB754BDFF873
:1033D000F881188000F0CCF900F05EFA724B734A65
:1033E000C3F8102502F5DE424832C3F81425012245
:1033F000C3F80425D8F80030DFF8D09101931846BF
:10340000FFF71EFCD9F8003002931846FFF718FCAE
:103410000198674CDFF8B8A1FFF750FC654B0F30FF
:10342000C3F8040500F0B6FA04F1150B36220021AA
:1034300008A802F0D1FC00F0C5F980B1032108A86A
:1034400000F0CEF90028F1D1BDF8211079BB9DF82C
:103450002030812B3ED0822B66D0802B2ED0D8F806
:1034600000703846FFF764FCD9F800600546304626
:10347000FFF75EFC0146002D00F082800390384685
:10348000FFF7E2FB0399D0F80350034600297AD0F6
:1034900030460393FFF7D8FBD0F80310002F74D009
:1034A0006D1A002D71DC039B3E46184670E00DF14D
:1034B000230000F095F90028C9D0B7E7FFF746FCD4
:1034C0003D4B0122DA600198FFF7BAFB0298FFF743
:1034D000B7FBC4E701210DF117008DF8173000F09C
:1034E00099F930B1354B364A4FF42E71354802F018
:1034F00049FB504602F004FC0221ADF8180006A872
:1035000000F088F920B12D4B2D4A40F2BD21EDE7A6
:10351000BDF81810504600F07DF900289FD0274BC9
:10352000274A40F2BF21E1E79DF8273084F8203098
:103530009DF8363084F8213000260A9B636206220B
:103540000CA958460B9D0696ADF81C6002F096FC3F
:103550000622594606A8267502F0EEFD012300B1A9
:10356000237501982360FFF7A9FB124B0F30C3F8B6
:103570000405606A94F820102A4600F0C3F96EE74B
:103580002F462B4682E73E461846002E3FF44EAFAC
:10359000B0F80110033100F03DF93046FFF770FB41
:1035A00044E700BF224E002000F00140041100401B
:1035B000544E00200010004000800040DE810000DA
:1035C000DA820000BC810000F4820000F08200007A
:1035D000F281000070B50C4E0C4D04460A494022A1
:1035E000204601F081FD40B9204601F078FD3146CA
:1035F0000246284600F0AEFBF0E7922803D0BDE873
:10360000704002F027B970BDB14E00206085000007
:1036100010B50446032937D8DFE801F0372D02132F
:103620004FF0A0434FF40002C3F80C250022C3F86A
:103630000825204B01221A702046BDE81040FFF7F4
:10364000C9BF4FF0A0434FF40002C3F808254FF064
:1036500080710022C3F80C25C3F80825C3F80C2597
:10366000C3F80815C3F80C25124B13481A70BDE8AF
:10367000104000F0FABA4FF0A043D3F8042500221E
:10368000C3F80825C3F80C2510BD4FF0A042D2F8AE
:103690000435D94301F0807103F08073C2F8081536
:1036A000C2F80C3501F01BFD04490246024800F047
:1036B00051FBC1E7B04E002060850000B14E0020F4
:1036C000023808B50C281BD8DFE800F007111A1AD9
:1036D0001A1A221A2A1A1A1A1B004FF0A0434FF482
:1036E0008002C3F808250022C3F80C2508E04FF03B
:1036F000A0434FF48002C3F80C250022C3F808252C
:1037000008BD00F00DFD4FF0A0434FF0E072E8E778
:10371000FEF782FB0028F3D1BDE8084000F0FEBCB4
:10372000BDE8084000F0FEBC104C80B54FF0A0454D
:103730004FF0E07744F001040023C5F808754FF41A
:10374000FA76C5F80C354FF47A40A047013EFAD11D
:103750004FF40003C5F80C35C5F808654FF4FA7648
:103760004FF47A40A047013EFAD1E5E7108300000C
:1037700008B502F059F90346E8B902F06DF902F014
:1037800095F90028FBD001F0F3FF0C4800F03CFC59
:10379000034680B90A4800F0D5FC034658B900F04A
:1037A000A7FC034638B94FF0A0424FF0E071C2F8D1
:1037B0000815C2F80C05184608BD00BFF8820000C5
:1037C0001883000008B500F031FF0028FBD1034842
:1037D00000F068FA80F00100C0B208BD608500000A
:1037E0002DE9F041DFF8288007460E46002500F05D
:1037F0001DFF04460028FAD179193246404600F0F0
:103800001CFA0544AE42F2D82046BDE8F08100BF64
:1038100060850000F8B504460D4600F007FF00285B
:10382000FBD1064F064E2A462146384601F036FCAB
:1038300010B13378002BF6D10020F8BD18830000BA
:10384000B04E002025280AD026280AD027280AD0E2
:103850000A28D4BF023003304000C0B270470220B3
:1038600070471A207047502070470000084BD3F86B
:10387000502562B1074A0221C2F880100022C3F825
:10388000102101221A61D3F81021002AFBD07047C1
:103890000010004000E100E008B5FFF7E7FF4FF03F
:1038A00080430022C3F8002101221A60D3F80021CE
:1038B000002AFBD0104B00220321C3F80C25C3F8CB
:1038C00010150121C3F82C25C3F830154FF484716D
:1038D000C3F814150949C3F8181540F20311C3F8C9
:1038E00034150821C3F804131121C3F80012044B46
:1038F00083F8012308BD00BF00100040FA00030256
:1039000000E100E070B50D46044628461646FFF774
:10391000ADFFFFF797FF0F4B220EC3F808052402F7
:10392000C3F85455C3F8242540F25B62C3F81C4524
:10393000C3F83C65C3F83825074A0221C2F8801154
:1039400011600022C3F80021C3F80C2101225A6043
:1039500070BD00BF0010004000E100E010B5FFF7AF
:1039600085FF0446FFF76EFF084B094AC3F80805B8
:103970000221C3F85445C2F8801111600022C3F837
:103980000021C3F80C2101225A6010BD0010004034
:1039900000E100E0034AD2F8403623F0FF03C2F80A
:1039A0004036704700100040044B0121D3F84825F1
:1039B0009964D3F84805C3F8482570470080004053
:1039C000F8B5274800231D4619460C249A0002F139
:1039D000804202F50042D2F8406156B1C2F840116F
:1039E00004FB0302127A960741BF01229A402A4340
:1039F000D5B20133032BE9D1194E00240C2745FA27
:103A000004F3D8071DD507FB04F2B318197A490748
:103A10001BD5A30003F1804303F50043D3F8401501
:103A2000B2581144C3F840150021C3F840114FF4B7
:103A300080320C4BA240C3F8042307FB04635B688D
:103A400098470134032CDAD1F8BD1A7AC2F3800109
:103A500052075EBF1A7A61F341021A72EDE700BFA6
:103A60000C5000200080004038B54FF08043D3F860
:103A700000212AB901221A60D3F80021002AFBD0C4
:103A80000E4C0F4800250323C4F80455C4F808352C
:103A90000423C4F810354FF47023C4F80833094BDD
:103AA0004FF4807283F8085329461A60242202F0EA
:103AB00093F90123E3602360284638BD008000406D
:103AC0000C50002000E100E0012801461ED8124AF7
:103AD000137A13F0010007D0137DD80714D592F89C
:103AE0002030DB0715D402200C2303FB00231A7AB5
:103AF00042F001021A721A7A22F002021A721A7A3B
:103B000061F382021A7270470120EDE76FF0150031
:103B100070476FF00B0070470C500020F0B5041E8A
:103B200026DBDFF85CC00C2666430CEB0605287A22
:103B3000C0071DD52F7AC7F34000BF071BD42F7ACB
:103B400047F002072F724CF806206B600A44E3B27C
:103B50004FF4803199409B0003F1804303F500430B
:103B6000C3F84025C3F84001044BC3F80413F0BD6B
:103B70006FF01500FBE76FF07700F8E7008000407A
:103B80000C500020002813DB0B4B0C2202FB0033EF
:103B90001A7A92070CD50949C0B24FF4803282409C
:103BA000C1F808231A7A22F002021A720020704724
:103BB0006FF01500704700BF0C50002000800040DF
:103BC0000268136851688B4283BF826801325218C1
:103BD000C81A88BFD01A70472DE9F04103681E68E3
:103BE0005D68AE4284BF8568013517468846C26865
:103BF0004168AD1BBD42044606FB02110CD37A435B
:103C0000404602F03BF9A3683E449E4288BF00262E
:103C100023681E60BDE8F08105FB02F6324640468F
:103C200002F02CF9E26861687F1B7A4308EB06001A
:103C300002F024F923681F60ECE770B505460E46D4
:103C4000144682B1002001F001FE2846FFF7B8FFBC
:103C5000844228BF0446224628463146FFF7BCFF6F
:103C6000002001F0F5FD204670BD10B5044600208F
:103C700001F0ECFD20680C22002102F0ADF8BDE857
:103C80001040002001F0E4BD10B50446002001F012
:103C9000DDFD2046FFF794FF0446002001F0D8FD2B
:103CA000204610BD036818685B68C31A5842584123
:103CB000704710B58468FFF7E7FF201A10BD2DE9A3
:103CC000F047044615468846FFF7F3FF2268A368CD
:103CD00056685168E26803F101098246A9EB0603C0
:103CE0006068AB4202FB010017D36A43414602F011
:103CF000C5F82268A16853682B448B4296BF53686D
:103D000000235B1953602046FFF75AFF23689A6827
:103D1000824238BF9860BDE8F08703FB02F73A465D
:103D2000414602F0ABF82E44E2686068A6EB090653
:103D3000724308EB070102F0A1F82368AA455E6010
:103D4000E1D22268A16853688B4234BF013300235B
:103D50001360D8E770B505460E46144682B10020C0
:103D600001F074FD2B7C6BB9AB689C4228BF1C46EC
:103D7000284622463146FFF7A2FF002001F068FDE9
:103D8000204670BD2846FFF794FF844228BF0446B2
:103D9000EEE743681B681847024B5B6803B118479E
:103DA000704700BF38500020020600F00F034CBFE0
:103DB00002480348DB001844704700BF9C500020B5
:103DC0005450002008B5FFF7EFFF016009B14B68C0
:103DD0001968416008BD0000024B0146D3E90002AA
:103DE000104700BF54500020022838B5044620D0A8
:103DF000431F032B8CBF00230123144D2A78022A72
:103E00001ED0053A032A1BD913B1114801F056FE02
:103E10002A786FF48273234103F00103022A83F0AE
:103E2000010308D0082A06D00BB1FEF737F82C7032
:103E300038BD0123E1E7002BF9D1FEF725F8F6E7BD
:103E4000002BE5D101F064FEE2E700BF4550002001
:103E5000304B002037B50378052B044630D12B4A70
:103E6000D2F88434D2F88024D2B222B9284ADBB204
:103E7000052B08BF1446274801A901F00BFD054694
:103E8000002839D023680360002001F0DFFC224BBA
:103E900022481B88026801339B1AEB80002101F045
:103EA0006EFDA880002001F0D3FC01A9194801F0A3
:103EB0001BFD1B4B1B680146F3B1204698471BE0D6
:103EC000002BD8D1174B1D68C5B92846134D01F0FA
:103ED000BDFC2B6813B9104B62881A8001210F4872
:103EE00001F064FD002001F0B3FC0D4B1B6813B121
:103EF0000121204698472B6803B030BD2B686088AD
:103F00009B6898472B685D68DEE700BF0070024041
:103F100054830000EC500020E4500020E8500020C2
:103F20003850002048500020FFF794BF012805D0EA
:103F3000022805D030B90448FFF78CBF0348FBE7DF
:103F40000348F9E7704700BF4A830000468300003A
:103F5000428300000148FFF77DBF00BF3C830000A3
:103F60002DE9F04F87B000260546884691461F464A
:103F700002966B6800225C682946012302A8A047CC
:103F8000044638B98DF8060004908246564503D899
:103F9000052028E00136ECE76B680DF10602D3F846
:103FA00004B02946012304A8D8476B680DF1070225
:103FB000D3F804B02946012304A8D8479DF8073058
:103FC00043459DF8063013D14C450FD1109A13602C
:103FD0003B7087F801806A68023B54682946BA1C26
:103FE00004A8A047002007B0BDE8F08F0134E4B278
:103FF0006A68023BD2F804B02946002204A8D847D8
:104000009DF806309A44C1E72DE9F7430823054699
:104010002D492E484FF4847201F029FC002851D11B
:104020002B48FDF751FF0446002847D1294B187053
:10403000294B1860294B014618604822284801F096
:10404000CBFE28484822214601F0C6FE264B1DBB68
:10405000C3E900551D72002001F06EFD18B18528DE
:1040600001D001F0F7FB214F97F80890002607F1E7
:104070000908F4B2A14516D904EB440444440025D0
:104080006278EBB29A420CD9A27823443946985C04
:10409000FFF798FE0135F3E795E8070083E807008E
:1040A000D9E70136E5E70B2310488DF8043001A964
:1040B000FFF76FFE044608B1FDF7C6FD204603B0CA
:1040C000BDE8F0830324F9E7FC500020EC50002009
:1040D000293F000045500020505000204C50002047
:1040E0009C50002054500020385000208083000055
:1040F00008B5FDF789FE08B9082008BDFDF78CFE5C
:104100000028F9D1044801F032FD08B90020F4E795
:1041100001F0A0FBFAE700BF50830000FDF79EBD51
:10412000FEF776BA4FF08043D3F83824920702D5D1
:104130000348FFF78FBED3F83824D107F4D4704773
:10414000418300002DE9F74300F1090790F808903A
:10415000054639460026F3B299452AD991F80180DF
:104160000024E3B298450AD98B780A190134D05C4F
:10417000FFF71AFE0368002BF3D0112028E0013668
:104180000331E8E7A37823442946985CFFF71AFE39
:1041900001366378F2B29342F4D808F101082B7A21
:1041A0005FFA88F4A34216D904EB44043C44002689
:1041B000EFE74FF00008F2E713681A68002AFBD116
:1041C0001D6001A90B2328468DF80430FFF7E1FD9F
:1041D00003B0BDE8F083014BEFE700BF5050002073
:1041E000024B1878003818BF012070474450002057
:1041F000030710B5044604D4FDF77AFF2046FEF706
:10420000CBFA2046BDE81040FEF772BAFEF73EBA80
:10421000014B1868704700BF50500020F0B50A4BA2
:104220000246186878B1057A0023861DDCB2A542E3
:1042300001D80368F5E7013303EB4307F75D9742C5
:10424000F4D101B10C70F0BD505000201146FFF7C1
:10425000A0BD08B500F00F03082B07D8FFF7A4FD99
:10426000006818B1BDE80840FFF793BD102008BDF5
:1042700038B5054B05461C6804B938BD29462046AB
:10428000FFF787FD2368F6E75050002038B5074B4D
:1042900005461C680CB9062038BD29462046FFF7A4
:1042A00078FD0628F8D12368F3E700BF50500020BE
:1042B00038B504460D46FDF749FE48B1054B1B785D
:1042C000022B05D129462046BDE83840FDF74EBEF9
:1042D000082038BD4550002038B504460D46FDF78E
:1042E00035FE48B1054B1B78022B05D129462046E7
:1042F000BDE83840FDF7AEBE082038BD455000206F
:10430000F8B543689B6804460D46164613B92EB1AE
:10431000072002E098470628F9D0F8BD237AAB427F
:1043200013D9093405EB45052C446778F3B29F4255
:1043300001D80020F1E762789A4208D9A219A3783F
:10434000D05CFFF755FF0136F0E77378FFDE0023FE
:104350001B78FBE770B54368DB6804460D4603B184
:104360009847237AAB4213D905EB450509342C4411
:1043700000256678EBB29E4200D870BD62789A4202
:1043800009D96219A378D05CFEF780F90135F1E70D
:1043900000235B78FFDE00231B78FBE743681B6983
:1043A00003B118471846704770B5084B1C6804B92C
:1043B00070BD267A0025E9B28E4201D82368F5E760
:1043C00000222046FFF79CFF0135F4E75050002003
:1043D00070B5084B1C6804B970BD267A0025E9B297
:1043E0008E4201D82368F5E72046FFF7B3FF013579
:1043F000F5E700BF5050002038B503780F2B044676
:104400000CD983F08002052A00D938BD813B042BEA
:1044100062D8DFE803F029466D77D9000F2BF4D876
:1044200001A252F823F000BF2745000057450000C5
:10443000B74500007B45000099450000C9450000D4
:10444000DB4500000B440000054600000946000063
:104450000D4600000B4400000B4400000B4400001C
:104460000B440000D34500006948FFF7B5FC6848DD
:10447000FFF7FEFE0D20FFF78FFCFFF7A9FF00F00E
:10448000FEFE644B1B6853B9634B187A00F00100C1
:10449000FDF790FC0120BDE83840FFF7A5BC0120E6
:1044A000F4E7FFF795FFFEF795F80020FFF79CFC77
:1044B0005A48FFF7DDFE5948FFF78EFC0E20FFF744
:1044C0006BFC574B1B78022B02D0053B032B9CD86F
:1044D000BDE8384001F01CBB514B1B78062B05D0C2
:1044E00003F0FD03052B90D10220D4E70820D2E78A
:1044F0004B4B1B78032B88D1FEF7A4F8002884D0FF
:104500000420C8E7464B1B78032B05D1FEF79AF829
:1045100010B10420FFF768FCFDF788FC00283FF489
:1045200074AF0620B7E73E4B1B78032B01D0082B56
:1045300002D13C48FFF760FF0020FFF72DFC354B10
:104540001D68002D3FF461AF28462146FFF721FC8E
:104550002B685D68F5E7FFF73BFF00F087FE022060
:10456000FFF742FC0120FFF717FC2046FFF734FC61
:104570002046BDE83840FFF77BBE294B1B78082B4F
:1045800006D10220FFF730FCFDF792FC0320EAE79A
:104590000520FFF729FCF9E70320FFF7FDFB224880
:1045A000FFF71AFC2048FFF763FE1D4B1B78062B14
:1045B0009AD107206FE70320FFF716FC0220FFF7D0
:1045C000EBFB2046FFF754FE2046BDE83840FFF7DE
:1045D00003BC0F20FFF7E0FBCAE78078FFF7E4FB9E
:1045E000214643680068984700283FF40EAFA07842
:1045F00002073FF40AAF03073FF507AFBDE83840B5
:10460000FDF768BD0820E5E70920E3E70A20E1E7B8
:10461000408300004C500020385000203F830000B1
:10462000455000203E8300003D83000073B5224EBC
:1046300000230193336823B92049214801F064F92C
:1046400030603468ECB1A58885B1E388B3F5006FBC
:1046500024BF0023E380E388ADF806305A1C013DF7
:10466000E280A58001A8FFF7C7FE07E02046FFF71C
:10467000C3FE1249124801F072F93560012002B000
:1046800070BD104B18680028F9D0204601F0DEF804
:104690000D4B0C481A88B2F5006F28BF1C801A8891
:1046A000ADF80620511C1980012101F08BF9002082
:1046B00001F0CEF8D6E700BF345000203050002083
:1046C000EC500020E8500020E4500020C36903B102
:1046D0001847704703680022C3E91E22C3E920225D
:1046E0001A845A62DA6203F134025A6770474360EF
:1046F000CA699A4227BF8A69026001F128020260F2
:1047000026BF0B67CB618B670020704710B504464E
:1047100058B90868037B202B09D100F10E0107224C
:10472000183001F0ABFB204610BD0320FCE706204B
:10473000FAE74360CA699A420DD38A690260C86980
:104740001A448A610A6FC01A1A44C86100380A679D
:1047500018BF0120704701F1280202608B6700201A
:1047600070470000F0B5054600680E7A002800F09A
:104770008780A0F212307C2800F219837C2800F296
:104780001683DFE810F0820096009800A400B000C5
:10479000BC00C800D400140314031403140314034E
:1047A0001403E900F50014031403140314031201A5
:1047B0001E012C011403140314033F014B01790162
:1047C000140314031403140361016D01790114032C
:1047D00014031403140314031403850114031403B2
:1047E000140314039901A501B101BD01C90114030A
:1047F0001403D501E101ED01F901050214031403CD
:10480000150221022D02390214031403450251023C
:104810005D026902750214031403140314031403E4
:1048200014031403140314031403140314031403D0
:1048300014031403140314031403140392029E02BA
:10484000140314031403B70214031403140314030E
:10485000D4021403140314031403D4021403140322
:104860001403140314031403E002EC0214031403EE
:10487000140314030A0314031403140314030A0394
:1048800008202871002B00F096820AB12879107058
:104890000B20012B287140F2918201240AB1287962
:1048A00010550134087D28719C4205D34FF445739F
:1048B00049E00024F2E700240AB1287910550134B8
:1048C00002209C42287103D340F215333BE00024C0
:1048D0000AB128791055013402209C42287103D373
:1048E00040F216332FE000240AB128791055013424
:1048F00002209C42287103D340F2173323E00024A6
:104900000AB1287910550134487E28719C4203D39E
:104910004FF4467317E000240AB12879105501348A
:1049200000209C42287103D340F219330BE000248D
:104930000AB128791055013400209B4F8642387007
:1049400003D840F29933012033E20920A3422871B1
:1049500003D84FF44873F6E700240AB128791055BC
:10496000013404209C42287103D340F22133EAE74A
:1049700000240AB1287910558B480F7A0078DFF8A7
:104980002CC2874204F1010440F21B8201F10907A5
:1049900000EB400007EB000E9C42385CCCF800E0D6
:1049A000287103D340F22633CDE700240AB12879D9
:1049B0001055013400209C42287103D340F2273364
:1049C000C1E700240AB128791055784800680134FD
:1049D000407828719C4203D34FF44A73B3E7002414
:1049E0000AB12879105571480F7D00680078874218
:1049F00004F101041ED102209C42287103D34FF41C
:104A00004B73A0E700240AB1287910550134022025
:104A10009C42287103D340F22D3394E700240AB15D
:104A2000287910550134487E28719C4225D340F2E4
:104A30002E3388E78F7D874223D10A209C4228713C
:104A400003D340F233337EE700240AB128791055AE
:104A5000013400209C42287103D34FF44D7372E758
:104A600000240AB128791055013400209C42287195
:104A700003D340F2353366E700240AB12879105594
:104A800001340020A342287103D84FF44F735AE732
:104A900000240AB12879105544480F7D0068007839
:104AA000874204F1010440F0E88005209C4228710F
:104AB00003D340F2413346E700240AB12879105568
:104AC000013424209C42287103D340F242333AE758
:104AD00000240AB128791055013400209C42287125
:104AE00003D340F243332EE700240AB1287910554E
:104AF000013410209C42287103D34FF4517322E7F4
:104B000000240AB128791055013401209C422871F3
:104B100003D340F245334CE100240AB12879105503
:104B2000013405209C42287103D34FF452730AE7E5
:104B300000240AB128791055013424209C422871A0
:104B400003D340F24933FEE600240AB12879105518
:104B5000013401209C42287103D340F24A3328E1FA
:104B600000240AB128791055013403209C42287191
:104B700003D340F24B33E6E600240AB128791055FE
:104B80000134887D28719C4203D34FF45373DAE6D5
:104B900000240AB128791055013404209C42287160
:104BA00007D340F24F33CEE60C52002008520020CB
:104BB00000240AB128791055013424209C42287120
:104BC00003D34FF45473BEE600240AB1287910557C
:104BD000013402209C42287103D340F25133B2E6E3
:104BE00000240AB128791055013402209C42287112
:104BF00003D340F25233A6E600240AB128791055B7
:104C0000013405209C42287103D340F255339AE6C3
:104C100000240AB128791055013424209C422871BF
:104C200003D340F256338EE600240AB1287910559A
:104C3000013406209C42287103D340F2573382E6A8
:104C400000240AB1287910550134087D28719C424E
:104C500003D34FF4567376E600240AB12879105531
:104C60000134887D28719C4203D340F259336AE6AF
:104C700000240AB128791055013455480068477856
:104C8000544807700020544F3870524F3F78874285
:104C900004D8524800780130C0B24EE60720A34243
:104CA000287103D840F26D334DE600240AB128790B
:104CB0001055013405209C42287103D340F26E3315
:104CC00041E600240AB1287910554148424F006856
:104CD0003F7890F801C0BC4504F1010476D990F802
:104CE00002C038449C4210F80C00287103D340F2F3
:104CF000723328E600240AB12879105534480F7D14
:104D000000680078874204F1010406D103209C4228
:104D100028710DD340F2773315E68F7D87420BD192
:104D200002209C42287103D34FF45F730BE60024EA
:104D30000AB12879105501344020A342287103D8C4
:104D400040F28333FFE500240AB12879105501347D
:104D500000209C42287103D34FF46173F3E50024D3
:104D60000AB1287910551A480F7D006800788742EB
:104D700004F1010407D1086A9C42007828710DD320
:104D800040F28933DFE58F7D87420BD100209C42C2
:104D9000287103D340F28E33D5E500240AB1287977
:104DA000105501340C4800780130C0B26BE7002385
:104DB00018462B60F0BD40F21233C4E540F21333C5
:104DC000C1E50023CCF800301B78FFDE0023FBE7B1
:104DD0000852002005520020045200200C520020EE
:104DE000037A012B06D9437B012B06D9837B184418
:104DF000407B704700235B78FFDE00231B78FBE7D6
:104E00002DE9F0470B7888B005460C460E2B1AD8D2
:104E1000DFE803F00A080A0A190FA2191908190A8B
:104E20000A0A0A00FFF756FC0024204608B0BDE835
:104E3000F0874A78D1094FEA521332D013F00303B6
:104E400003D0012B1ED00624EFE702F01F02012A37
:104E5000F9D1A278062AF6D105A8039300F080FCC8
:104E600003AB0093E2782179034606462846FFF714
:104E700077F80528E7D0601C039A314600F01AFA4B
:104E80000446D2E7A378212BDDD1B4F80720072A06
:104E9000D9D10168601C183108B0BDE8F04700F0B6
:104EA00009BA012BCFD1A3780668202B32D0222B50
:104EB000C9D1B4F80730002BC5D1328CB4F8033017
:104EC000338402F0010203F00104A242ACD0C4F129
:104ED0000301C9B2FFF7FAFB002CA5D12B7A012BF5
:104EE00040F2D2806B7B002B00F0D080AB7B2B4458
:104EF000187BFDF743FA2846FFF772FFFDF73EFAED
:104F000006F13403C6E91E44C6E920447462F46223
:104F1000736789E7B4F80720072A94D13373B4F88C
:104F200007300024DBB2737320460E36CDE90563EB
:104F3000079400F08BFC204605A9FFF7B9F9044659
:104F400030B9544B03A9CDE9033500F0A1F904466B
:104F5000002000F07DFC68E7037A002B00F09880C9
:104F6000837A00F10901002B00F09080C27AA378C7
:104F70008A5C9A423FF458AF1B0694F803900CD514
:104F8000B9F1000F05D0B9F1030F3FF44DAF032481
:104F90004BE70121FFF79AFB46E709F0FD03012BE0
:104FA0003FF442AFB9F1000FF1D10468FFF718FFE9
:104FB000394B059304F10C030693A76A8046BFB9E9
:104FC000E36FA767C4E91F73E36A002B4AD0D4E9F3
:104FD0000B0104F1240383E80300E76205A94046BE
:104FE000FFF77AF9044600212846FFF76FFB1CE71C
:104FF000D4F884A0606A574528BF574604F13406A8
:1050000031463A4600F03AFFE36F3B44C4E91F9350
:10501000AAEB0703A367E36A3E44666713B304F190
:10502000240604F12C0797E8030086E80300A36F29
:10503000606AC4F82C901BB3A26A616F9A4214D8BC
:1050400000F01CFFA36AA26FC4F88030D21AA267D6
:10505000626F1A44626700212846FFF737FBE36A54
:10506000002BE0D163620024BDE71A4600F006FF82
:10507000A26FA36AE2679B1AA362636A1344636226
:10508000636A002BAAD1EEE76378FFDE1B78FCE7AA
:105090005B78FAE70D470000334700001FB503684F
:1050A0001B8CDB0714D5037A012B13D9437BA3B1E7
:1050B000837B18449306CDE901120CBF0123002322
:1050C000007B039301A9FFF7F3F805B05DF804FB3B
:1050D0000820FAE700235B78FFDE1B78FCE7036813
:1050E000D3F880007047000037B504680B46218C68
:1050F000C90725D5A56F95B1954228BF1546184615
:10510000616F2A4600F0BAFEA36FC4F880505B1BA3
:10511000A367636F2B446367002003B030BD616AEF
:1051200081B9C4E90932FFF75BFE0C34064B0093EA
:1051300069460194FFF7D0F8002808BF9220ECE7F9
:105140000820EAE71120E8E7EF460000002070475A
:105150002DE9F04F85B04B68009282460C4633B97A
:105160000B681B681E6816B98D68002D63D0FCF7AC
:10517000ADFFE368009A9A4228BF1A464FF0000933
:1051800004F11003064690464D4601270193B8F1FD
:10519000000F28D0A368616843459B4628BFC346DB
:1051A00039B35A46701900F069FE00236360A268A3
:1051B000E368A2EB0B02A3EB0B03A260E360A8EB96
:1051C0000B085D4412BBB9F1000F03D022681268CE
:1051D00012682260E3B12368E3B963601DB1009BEC
:1051E000AB4288BF00273846CAE9006505B0BDE874
:1051F000F08F002BDBD0216801984B687219D3F82F
:1052000004905B46C8474FF00109D0E7002BBED1A0
:105210000027BCE70023029321684B680022D3F8E3
:1052200004B002A80123D84708B92061AFE7A368FA
:105230000133A360F0E72F46D5E70000084B1A784A
:1052400082420CD0052818BF064A187018BF137880
:1052500005481CBF23F002031370FFF7CDB8704759
:1052600081520020805200206C83000008B500208D
:10527000FEF7BEFFBDE808408020FEF7B9BF08B5C5
:105280000020FEF7C3FFBDE808408020FEF7BEBF48
:1052900038B505460C46FCF7A9FFA84203BFD4E980
:1052A0000001034BC3E90001102008BF002038BDF6
:1052B000345200207FB5C38893421E4628BF16464D
:1052C00093420D46144620D98020FCF739FEB4FBEA
:1052D000F0F303FB1044B4FA84F46409002003944F
:1052E000CDE9015600F0B2FA01A98020FEF7E0FFF7
:1052F000044620B906498020FFF7CAFF0446002073
:1053000000F0A6FA204604B070BD0024E6E700BF16
:10531000788300002DE9F04F0B780E2B87B00D46F7
:1053200013D8A3B1013B0D2B11D8DFE813F0150002
:105330001D00190010002D00EB01100010001000DE
:1053400010001D00DD01E101E901852B16D00624C6
:10535000204607B0BDE8F08F0320FFF76FFFF6E7A8
:10536000AA4800F03DFB08B90024F1E7A84B012250
:10537000DA65BFF36F8FBFF34F8FF5E7A54B1B784F
:10538000032BE4D10420E8E70523A34D8DF80C306E
:105390000DF10D00FCF7BCFE00232B609DF80D30D5
:1053A00003F01F02032A00F21B81DFE812F0040061
:1053B000F7005401B20013F0600640F0AA80DB0948
:1053C0009DF80E1000F09F8006291DD0082900F0DE
:1053D0008F80002940F09D80904C0222204600F0F2
:1053E000FBFC23788D4943F0010222708C4A12782D
:1053F000920744BF43F00303237002220DF10D0016
:10540000FFF758FF044648E09DF81030022B0BD000
:10541000032B5ED0012B7CD1BDF81330002B00F0A4
:10542000938180491222E9E7BDF81370002F00F044
:105430008B81092F28BF0927FEF7EAFE4FF00908E4
:105440000446B14674BB754C77493A46204600F095
:1054500015FD2671A4F80280FEF7C2FE18B1E379AB
:1054600043F02003E371FEF7D3FE704BC3E9000461
:105470009F60BDF81320DA60002000F0E7F96C4966
:105480008020FEF729FF044620B96A498020FFF7F3
:10549000FFFE0446002000F0DBF9062C39D0002C7A
:1054A0004BD042E0CDF804904FF0000A6368002230
:1054B000D3F804B02146012301A8D84730B9237A94
:1054C0003344DEB22368D0441C68BBE70AF1010A0A
:1054D000ECE7BDF81330002B00F03681BDF8111059
:1054E0009DF80F0000F08CF9014690B1027885E735
:1054F000484A1278052A02D0042A0AD1334647497D
:1055000001220B707AE7032907D009292ED001293F
:105510001FD003A8FEF7BAFE9BE0BDF80F30012BA9
:10552000F7D1FEF75DFE18B90F24FCF75CFE0FE71C
:105530003B4A137843F0020313702B68002B00F0F2
:105540000381FCF753FE00287FF40EAFFCF706FE44
:105550000AE7BDF80F30012BDBD1FEF741FE002832
:10556000E2D02F4A137823F00203E5E7294B9DF898
:105570000F201B78043B012B01D90824D5E72AB959
:10558000FEF726FF0420FFF759FED6E7012A01D0D7
:105590000724CAE7FEF708FF0520F4E79DF811008D
:1055A00001A9FEF73BFE064608B91024BDE79DF8A9
:1055B000041003AAFEF74AFE062804467FF46FAFE4
:1055C0009DF80D2012F0600F0AD1124B9DF80410C7
:1055D00018789DF80E30D4092ED01BB10A2B07D0B5
:1055E0000624A2E70528C8D10C490B80022207E057
:1055F0000528C2D13046FEF7D1FE08492246087080
:105600000DF10D00FFF756FE23E000BF7C52002095
:105610000070024081520020345200203C52002091
:1056200080520020AD830000A483000010520020AF
:1056300070830000788300000B2BD1D105289CD10A
:10564000BDF80F30FF2BA3D89DF80F203046FEF792
:1056500057FE044623E79DF8110003071BD19DF870
:105660000D3013F0600FBBD19DF80E20394B9DF823
:1056700011401B78012A25D0032A14D0002AAFD16B
:10568000052B02D027077FF478AF2046FCF72EFDCC
:1056900031490880AAE703A9FEF7DBFD0628044686
:1056A0007FF4FDAEDBE726079AD4BDF80F20002A71
:1056B00096D1052B02D020077FF45FAF2046FCF780
:1056C00009FD3AE721078BD4BDF80F20002A87D1C6
:1056D000052B02D022077FF450AF2046FCF708FDCF
:1056E0002046FDF759F828E70020FFF7A7FD3BE625
:1056F0004FF08043D3F83834DB0701D50220F4E7BC
:105700000120F2E7C87803283FF421AE134E336836
:10571000EBB10022716832609847044600287FF49C
:1057200004AF336823B1AB78002B7FF41DAE0DE7D7
:105730004FF08053D3F83021082A7FF415AED3F808
:105740003431002B3FF410AEFCF74AFD0CE60E247A
:10575000EBE600BF815200203C5200203452002072
:1057600008B1402303600148704700BF3C5200204D
:1057700070B54FF0805286B0D2F8A830D2F8A4208D
:1057800000926FEA83436FEA93430B4A0B4E9BB23E
:105790000D2102A800F088FC02AD002402A800F050
:1057A000AFFA844201D306B070BD15F8013B06F88C
:1057B000013B0134F2E700BFFD810000825200206E
:1057C00010B50E4B53F8204023780BB9A01C10BD28
:1057D0000020FFF7C5FF013C00235A1CA15C39B92A
:1057E000DBB201335B00DBB243F440730380EEE7CE
:1057F000D3B220F813101346EFE700BFC0830000B8
:1058000008B9FFF7DDBF052807D8054A105C20B1AD
:10581000044B53F82030002BF3D10020704700BF19
:1058200028840000C083000072B6024A1368013366
:105830001360704790520020034A1368013B1360C5
:1058400003B962B6704700BF90520020FFF7ECBF6B
:10585000FFF7F2BF1FB50021039001AA44F2010037
:10586000CDE90111FDF760FF05B05DF804FB10B54F
:1058700061B1B2FBF3F403FB1424A4B244B9C0E950
:10588000001484608281C381204610BD0E20FCE795
:105890000920FAE737B550E8013F9DB2C489254495
:1058A0008489A54228BF2D1B0489A54202BFBFF3EE
:1058B0002F8F002207E0C5EA030540E80154002CC1
:1058C000E9D14FF001028DF803200193019A0A609B
:1058D0009DF8031001F0FF0321B1006810FA82F077
:1058E00003B030BD1846FBE70A884B889A4209D1BD
:1058F00050E8012FC2EA024240E80123002BF7D111
:10590000012070470020704737B550E8023F1FFA6A
:10591000A3F5C488A54202BFBFF32F8F00220DE07C
:10592000C48925448489A54228BF2D1BC3EA0545A7
:1059300040E80254002CE8D14FF001028DF803201A
:105940000193019A0A609DF8031001F0FF0321B151
:10595000006800EB124003B030BD1846FBE70A8830
:105960004B889A4209D150E8022FC2EA224240E80D
:105970000223002BF7D1012070470020704710B59B
:10598000034653E8000F0A4643E8002494F0000F52
:10599000F7D110BD10B5034653E8000F00EA01022D
:1059A00043E8002494F0000FF6D110BD10B5034673
:1059B00053E8002F02EB010043E8000494F0000FCD
:1059C000F6D110BD10B5034653E8002F8A422CBF14
:1059D000501A104643E8000494F0000FF4D110BDB3
:1059E0000021FFF7D7BF000038B5074C051EA4F112
:1059F000080308BF1C4623682BB11A6822605B6845
:105A000028469847F7E738BDA452002020B9054B37
:105A100001225A70FFF7E8BF012802D1014A9070B5
:105A2000F8E770479452002038B5094C23786BB9D9
:105A300008486360A3602361E360FCF7E3FE05466A
:105A4000FCF7ECFE01232370284638BD8525FBE7D3
:105A5000945200200D5A000038B5134CA378054627
:105A600003F0FF0073B115B16B6801209847002067
:105A7000FFF7ECFEE3680133E360BDE83840002047
:105A8000FFF7E6BEFFF7E2FE25B1226913463BB9F8
:105A90002A602561E368002BECD1FCF7D5FEE9E72D
:105AA0009D42F7D01B68F2E7945200204FF08043EC
:105AB000D3F81804C0F300407047000038B5134C09
:105AC0006378054603F0FF0073B115B16B680020E1
:105AD00098470020FFF7BAFE636801336360BDE8B2
:105AE00038400020FFF7B4BEFFF7B0FE25B1A26832
:105AF00013463BB92A60A5606368002BECD1FCF724
:105B0000B4FEE9E79D42F7D01B68F2E7945200200B
:105B100038B5084C0020FFF799FE6368013B6360CD
:105B2000656815B9FCF7B2FE6570BDE83840002025
:105B3000FFF78EBE9452002010B5074C23784BB966
:105B4000064B002808BF1846FCF7F4FE08B90123ED
:105B5000237010BD8520FCE7A85200202E84000091
:105B600008B5FCF716FFBDE80840FCF719BF10B5F3
:105B70000446FFF7F5FF2046FCF7FEFEFCF702FFA8
:105B8000002010BD00B50B4C25681446EE681A467F
:105B900085B003460D464CB107490095CDE9011487
:105BA0003046064900F012FA00F098F804490C4615
:105BB000F3E700BF384B0020308400004084000031
:105BC0003C84000008B513460022FFF7DBFF00BF4E
:105BD00080EA0102844612F0030F4FD111F0030F47
:105BE00032D14DF8044D11F0040F51F8043B0BD0A5
:105BF000A3F101329A4312F0803F04BF4CF8043BFA
:105C000051F8043B16D100BF51F8044BA3F1013207
:105C10009A4312F0803FA4F101320BD14CF8043BBF
:105C2000A24312F0803F04BF51F8043B4CF8044BF0
:105C3000EAD023460CF8013B13F0FF0F4FEA332361
:105C4000F8D15DF8044B704711F0010F06D011F840
:105C5000012B0CF8012B002A08BF704711F0020F2E
:105C6000BFD031F8022B12F0FF0F16BF2CF8022B19
:105C70008CF8002012F47F4FB3D1704711F8012B3C
:105C80000CF8012B002AF9D1704700BF70B50F4BFB
:105C90000F4DAB42A3EB050607D0B610002455F814
:105CA000043B01349847A642F9D802F0E7F9094DC0
:105CB000094B5E1BAB424FEAA60606D0002455F8FE
:105CC000043B01349847A642F9D870BD944B00209C
:105CD000944B0020944B0020984B002008B50620E0
:105CE00001F05AF8012002F0C7F900BF00000000DF
:105CF00000000000000000000000000000000000A4
:105D000030B490F800F020F007016FF0000C10F0B4
:105D1000070491F820F040F048804FF000046FF045
:105D20000700D1E9002391F840F000F1080082FA61
:105D30004CF2A4FA8CF283FA4CF3A2FA8CF34BBB2C
:105D4000D1E9022382FA4CF200F10800A4FA8CF2A5
:105D500083FA4CF3A2FA8CF3E3B9D1E9042382FA73
:105D60004CF200F10800A4FA8CF283FA4CF3A2FA88
:105D70008CF37BB9D1E9062301F1200182FA4CF2C0
:105D800000F10800A4FA8CF283FA4CF3A2FA8CF327
:105D9000002BC6D0002A04BF04301A4612BAB2FA49
:105DA00082F200EBD20030BC7047D1E9002304F04E
:105DB0000305C4F100004FEAC50514F0040F91F883
:105DC00040F00CFA05F562EA05021CBF63EA050320
:105DD00062464FF00004AAE7830730B547D0541E4F
:105DE000002A3ED0CAB2034601E0013C39D303F891
:105DF000012B9D07F9D1032C2CD9CDB205EB05253C
:105E00000F2C05EB054535D9A4F1100222F00F0C3B
:105E100003F1100EE6444FEA121C1A46C2E900557F
:105E2000C2E9025510327245F8D10CF1010214F0AA
:105E30000C0F03EB021204F00F0C13D0ACF10403AF
:105E400023F003030433134442F8045B9342FBD171
:105E50000CF003042CB1C9B21C4403F8011BA3428B
:105E6000FBD130BD64461346002CF4D1F9E703465C
:105E70001446C0E71A46A446E0E700BF844641EA5C
:105E8000000313F003036DD1403A41D351F8043BB2
:105E900040F8043B51F8043B40F8043B51F8043B04
:105EA00040F8043B51F8043B40F8043B51F8043BF4
:105EB00040F8043B51F8043B40F8043B51F8043BE4
:105EC00040F8043B51F8043B40F8043B51F8043BD4
:105ED00040F8043B51F8043B40F8043B51F8043BC4
:105EE00040F8043B51F8043B40F8043B51F8043BB4
:105EF00040F8043B51F8043B40F8043B51F8043BA4
:105F000040F8043B51F8043B40F8043B403ABDD212
:105F1000303211D351F8043B40F8043B51F8043BB4
:105F200040F8043B51F8043B40F8043B51F8043B73
:105F300040F8043B103AEDD20C3205D351F8043B43
:105F400040F8043B043AF9D2043208D0D2071CBF0F
:105F500011F8013B00F8013B01D30B880380604638
:105F6000704700BF082A13D38B078DD010F00303AE
:105F70008AD0C3F10403D21ADB071CBF11F8013B1E
:105F800000F8013B80D331F8023B20F8023B7BE76D
:105F9000043AD9D3013A11F8013B00F8013BF9D298
:105FA0000B7803704B7843708B7883706046704732
:105FB0000CB400B583B004AB53F8042B019300F08C
:105FC0002FF903B05DF804EB02B070470EB410B5C2
:105FD00083B005AB064C53F8042B019301462068AF
:105FE00000F01EF903B0BDE8104003B0704700BFD9
:105FF000384B002008B5064B044613B1002101F0D0
:1060000033FF044B1B6803B19847204602F034F875
:10601000697E0000E4530020002301461A4618461A
:1060200001F098BB08B410B5002A9DB0044636DBD9
:106030004FF40273ADF814304FF000031B9302913C
:10604000069120AB17D0013A4FF6FF7104920792E8
:10605000ADF816101F9A019302A900F06DFB421CC7
:1060600001DA8B232360029B00221A701DB0BDE869
:10607000104001B070474FF6FF7104920792ADF8DF
:1060800016101F9A019302A900F056FB431C01DA77
:106090008B2323601DB0BDE8104001B070478B23F7
:1060A00003604FF0FF30F5E70CB410B5214B002929
:1060B0001C689CB038DB4FF000034FF402721B9356
:1060C000ADF81420029006901FAB18D001394FF69E
:1060D000FF7204910791ADF8162002A91E9A019350
:1060E000204600F029FB421C01DA8B232360029B2F
:1060F00000221A701CB0BDE8104002B070474FF685
:10610000FF7204910791ADF8162002A91E9A01931F
:10611000204600F011FB431C01DA8B2323601CB0E6
:10612000BDE8104002B070478B2323604FF0FF3072
:10613000F5E700BF384B0020032A30B415D941EAF7
:106140000004A40784460B4604D0541E0FE0043A12
:10615000032A08D91946604653F8044B5CF8045BDF
:10616000A542F4D0F1E760461946541E7AB1431EA9
:106170000139021901E09A4209D013F8010F11F810
:1061800001CF6045F7D0A0EB0C0030BC7047002079
:1061900030BC70479368013B002B936011DA10B458
:1061A0009469A34209DB0A2907D01368581C1060C0
:1061B000197008465DF8044B70475DF8044B00F019
:1061C00087B91368581C106019700846704700BFE3
:1061D0009BB1F8B5134406460F46541E5D1E01E000
:1061E000AC4208D014F8011F3A463046FFF7D2FF00
:1061F000431CF5D1F8BD0020F8BD0020704700BF5A
:10620000936810B514461BB918460023636010BD8F
:1062100000F0AEFB0023A3600023636010BD00BF4D
:106220002DE9F04FA1B08B4691461C46049018B161
:10623000036A002B00F01C81BBF80C30180740F1FA
:106240009580DBF81030002B00F090800023CA46C8
:106250000D9343F22003ADF839309AF80030864EA2
:1062600007940127002B79D0D14604E019F8013FAB
:10627000002B00F08580252BF8D1B9EB0A0840F0FF
:10628000828099F80030002B68D000234FF0FF3255
:10629000CDE9092309F1010908930B938DF86330C7
:1062A0001E9305E0089A07FA03F31A430892A146E1
:1062B0004C46052214F8011B304601F099F9A2461C
:1062C000831B0028EED1089BD90644BF20228DF8FD
:1062D000632099F800101A0744BF2B228DF8632021
:1062E0002A2966D1079A1168043200290792C0F260
:1062F0009A800B9199F801102E2970D05F4C0322DF
:10630000204601F075F938B1089B001B40228240FD
:1063100013430AF1010A08931AF8011B58488DF833
:106320003810062201F064F9002800F08280554BF5
:10633000002B69D007AA0092534B04985A4608A92B
:10634000AFF300800390039B013307D00D9B039AAA
:1063500013440D939AF80030002B85D1BBF80C3014
:106360005B060AD40D9821B0BDE8F08F0498594619
:1063700001F08EF900283FF469AF4FF0FF30F2E7EB
:10638000B9EB0A08EAD00AF1FF35CDF81490A94616
:10639000049D01E0A0453ED94C465A4619F8011F1C
:1063A0002846FFF7F7FE02340130A4EB0A04F1D1CE
:1063B000D4E7A1F13002092A88BFCA469CD80B9BBA
:1063C00000E00134217803EB830302EB4303A1F1E6
:1063D0003002092AF5D92E290B93A2468ED19AF8BC
:1063E00001102A292FD1079B9AF802101A680992E6
:1063F0000433002A0AF102000793B8BF4FF0FF33BD
:106400008246B8BF099379E7079B073323F0070358
:10641000083307939AE70D99DDF81490414499F8F1
:1064200000300D912FE7494243F002030B9108938E
:1064300060E707AA0092144B04985A4608A901F095
:10644000A3FA03907FE7A1F130020023092A099300
:106450000AF1010A3FF652AF1AF8011F03EB83035A
:1064600002EB4303A1F13002092AF5D9099345E76C
:1064700000F018FEE0E600BF7084000078840000A1
:106480007C84000000000000D161000010B4054CC5
:106490008446134620685DF8044B0A466146FFF7C0
:1064A000BFBE00BF384B002038B5074D074C2C1B32
:1064B000A41005D0013C55F8043D9847002CF9D1B3
:1064C000BDE8384001F0E0BD9C4B0020984B002017
:1064D000F8B50D461446064610B1036A002B37D0B6
:1064E000A389A269A2601A0719D52369BBB12268E2
:1064F0006169D31AEDB299422F4620DD0133A168BC
:106500000139A160511C2160157062699A420DD059
:10651000A389DB0701D50A2D08D03846F8BD2146EE
:10652000304601F0B5F838B92369E0E72146304636
:1065300000F072FE0028F0D04FF0FF37EDE7214663
:10654000304600F069FE0028F6D122680123D6E724
:1065500000F0A8FDC4E700BF10B4044C03460A468F
:1065600020685DF8044B1946FFF7B2BF384B002096
:106570002DE9F0478F681D46AF420B680C46164662
:1065800036D8B1F90CC01CF4906F0ED13D461846B8
:1065900031462A4600F084FFA368DF1B2368A7600A
:1065A0002B4400202360BDE8F0874A69096902EBAB
:1065B00042025F1A02EBD2726B1C52103B449342B0
:1065C00092BF914699461A461CF4806F804611D0BE
:1065D000114600F087FE824600B321693A46FFF774
:1065E0004DFCA38923F4906343F08003A38105E06D
:1065F0002F46CCE701F004F9824658B10AEB0703B5
:10660000A9EB0707A760C4F810A0C4F81490236092
:106610002F46BCE72169404600F0E4FEA3890C2226
:1066200043F04003C8F800204FF0FF30A381BAE7E1
:106630002DE9F04F9368176883B09246002B74D011
:106640004FF0000B8B680A6881460C465D4645E0BA
:10665000B4F90C3013F4906F2CD0D4E90401161A5D
:1066600001EB410202EBD272711C5210294491429B
:1066700092BF904688460A465B0539D51146484682
:1066800000F030FE019000283DD032462169FFF72E
:10669000F5FBA289019B22F4906242F08002A28164
:1066A0009819A8EB0606A660C4F814802361206040
:1066B000A8462E463246594600F0F2FEDAF8081097
:1066C000A3682268A3EB08033244491BA36022603D
:1066D000CAF8081049B3D7E900B5083798461046FC
:1066E000002DF8D09D421E46B2D2A8462E46E1E7C4
:1066F0000146484601F084F803460028D0D12169BC
:10670000484600F06FFEA3890C2243F04003C9F80D
:1067100000204FF0FF30A38100220023CAF8082098
:10672000CAF8043003B0BDE8F08F00200023CAF897
:10673000043003B0BDE8F08F2DE9F04F1C468B8983
:106740001D069DB088468146934603D50B69002BF4
:1067500000F0F1800023099343F22003ADF82930C3
:106760009BF800307D4D03940126002B73D0DA4650
:1067700003E01AF8013F002B75D0252BF9D1BAEBB5
:106780000B0473D19AF80020002A64D000234FF044
:10679000FF32CDE905230AF1010A049307938DF82E
:1067A00053301A9305E0049A06FA03F31A4304924D
:1067B000A2465446052214F8011B284600F018FF93
:1067C000A346431B0028EED1049BD80644BF2022D9
:1067D0008DF8532019079AF8001044BF2B228DF82A
:1067E00053202A2950D1039A1168043200290392B8
:1067F0007CDB07919AF801102E295BD0584C0322BC
:10680000204600F0F5FE38B1049B001B4022824078
:1068100013430BF1010B04931BF8011B51488DF836
:106820002810062200F0E4FE002865D04E4B002B15
:1068300055D003AA00924D4B424604A94846AFF3F7
:10684000008007467A1C06D0099B3B4409939BF8BD
:106850000030002B8BD1B8F80C305B067AD4099845
:106860001DB0BDE8F08FBAEB0B04F4D023465A46B6
:1068700041464846FFF77CFE0130ECD0099B9AF870
:106880000020234409937FE7A1F13002092A88BF41
:10689000D346B1D8079B00E00134217803EB830392
:1068A00002EB4303A1F13002092AF5D92E290793FF
:1068B000A346A3D19BF801102A2927D1039B9BF85B
:1068C00002101A6805920433002A0BF102000393A8
:1068D000B8BF4FF0FF338346B8BF05938EE7039BE5
:1068E000073323F0070308330393ADE7494243F02E
:1068F0000203079104937DE703AA00921B4B4246D3
:1069000004A9484601F040F807469BE7A1F1300290
:106910000023092A05930BF1010B3FF66FAF1BF81B
:10692000011F03EB830302EB4303A1F13002092AA9
:10693000F5D9059362E7402100F0D4FCC8F80000C7
:10694000C8F8100018B14023C8F8143002E70C232F
:10695000C9F800304FF0FF3082E700BF70840000BC
:10696000788400007C840000000000007165000055
:106970009368002B00F0F8802DE9F04FB1F90CC0BE
:106980001CF0080F83B0904681460C4631D00B694D
:106990007BB31CF00207D8F8006038D00027D4F889
:1069A00028B0216ADFF8C4A23D4655452B463A4639
:1069B00028BF53464846C5B1D847002840F3CA808F
:1069C000D8F808301B1A07442D1AC8F80830002BD5
:1069D00000F0B68055452B46D4F828B0216A28BF70
:1069E00053463A464846002DE6D1D6E900750836AA
:1069F000DBE72146484600F04BFE002840F0AF8020
:106A0000B4F90CC0D8F800601CF00207C6D11CF025
:106A1000010A63D12368A168574618468B46002FA8
:106A200058D01CF4007F00F0B580B9420A4600F24D
:106A3000E1801CF4906F2FD0216962695D1A02EB2E
:106A4000420202EBD2726B1C52103B44934292BF43
:106A500093469B461A461CF4806F00F0EA8011466C
:106A6000484600F03FFC002800F0F9802A462169E2
:106A70000090FFF703FAA289009B22F4906242F093
:106A80008002A2815819ABEB0505C4F814B023614C
:106A9000A5602060BB463A465146009200F000FDDA
:106AA000A1682368009AA1EB0B011A443D46A1603E
:106AB00022600027D8F808305B1BAA44C8F80830C9
:106AC000002B3DD02368A168B4F90CC018468B4652
:106AD000002FA6D1D6E900A708369EE73846BB4668
